{
  "address": "0x0E3A736BC6Ea7cd236F74d7CC0a94e55f288e7c4",
  "abi": [
    {
      "inputs": [],
      "stateMutability": "nonpayable",
      "type": "constructor"
    },
    {
      "anonymous": false,
      "inputs": [
        {
          "indexed": false,
          "internalType": "bytes32",
          "name": "id",
          "type": "bytes32"
        },
        {
          "indexed": false,
          "internalType": "address",
          "name": "claimer",
          "type": "address"
        },
        {
          "indexed": false,
          "internalType": "uint256",
          "name": "timestamp",
          "type": "uint256"
        },
        {
          "indexed": false,
          "internalType": "uint256",
          "name": "to_value",
          "type": "uint256"
        },
        {
          "indexed": false,
          "internalType": "address",
          "name": "token_address",
          "type": "address"
        }
      ],
      "name": "ClaimSuccess",
      "type": "event"
    },
    {
      "anonymous": false,
      "inputs": [
        {
          "indexed": false,
          "internalType": "bytes32",
          "name": "id",
          "type": "bytes32"
        },
        {
          "indexed": false,
          "internalType": "address",
          "name": "token_address",
          "type": "address"
        },
        {
          "indexed": false,
          "internalType": "uint256",
          "name": "remaining_balance",
          "type": "uint256"
        },
        {
          "indexed": false,
          "internalType": "uint128[]",
          "name": "exchanged_values",
          "type": "uint128[]"
        }
      ],
      "name": "DestructSuccess",
      "type": "event"
    },
    {
      "anonymous": false,
      "inputs": [
        {
          "indexed": false,
          "internalType": "uint256",
          "name": "total",
          "type": "uint256"
        },
        {
          "indexed": false,
          "internalType": "bytes32",
          "name": "id",
          "type": "bytes32"
        },
        {
          "indexed": false,
          "internalType": "address",
          "name": "creator",
          "type": "address"
        },
        {
          "indexed": false,
          "internalType": "uint256",
          "name": "creation_time",
          "type": "uint256"
        },
        {
          "indexed": false,
          "internalType": "address",
          "name": "token_address",
          "type": "address"
        },
        {
          "indexed": false,
          "internalType": "string",
          "name": "message",
          "type": "string"
        },
        {
          "indexed": false,
          "internalType": "uint128[]",
          "name": "ratios",
          "type": "uint128[]"
        },
        {
          "indexed": false,
          "internalType": "address",
          "name": "qualification",
          "type": "address"
        },
        {
          "indexed": false,
          "internalType": "uint256",
          "name": "limit",
          "type": "uint256"
        }
      ],
      "name": "FillSuccess",
      "type": "event"
    },
    {
      "anonymous": false,
      "inputs": [
        {
          "indexed": false,
          "internalType": "bytes32",
          "name": "id",
          "type": "bytes32"
        },
        {
          "indexed": false,
          "internalType": "address",
          "name": "swapper",
          "type": "address"
        },
        {
          "indexed": false,
          "internalType": "address",
          "name": "from_address",
          "type": "address"
        },
        {
          "indexed": false,
          "internalType": "address",
          "name": "to_address",
          "type": "address"
        },
        {
          "indexed": false,
          "internalType": "uint256",
          "name": "from_value",
          "type": "uint256"
        },
        {
          "indexed": false,
          "internalType": "uint256",
          "name": "to_value",
          "type": "uint256"
        },
        {
          "indexed": false,
          "internalType": "uint128",
          "name": "input_total",
          "type": "uint128"
        }
      ],
      "name": "SwapSuccess",
      "type": "event"
    },
    {
      "anonymous": false,
      "inputs": [
        {
          "indexed": false,
          "internalType": "bytes32",
          "name": "id",
          "type": "bytes32"
        },
        {
          "indexed": false,
          "internalType": "address",
          "name": "token_address",
          "type": "address"
        },
        {
          "indexed": false,
          "internalType": "uint256",
          "name": "withdraw_balance",
          "type": "uint256"
        }
      ],
      "name": "WithdrawSuccess",
      "type": "event"
    },
    {
      "inputs": [
        {
          "internalType": "bytes32",
          "name": "id",
          "type": "bytes32"
        }
      ],
      "name": "check_availability",
      "outputs": [
        {
          "internalType": "address[]",
          "name": "exchange_addrs",
          "type": "address[]"
        },
        {
          "internalType": "uint256",
          "name": "remaining",
          "type": "uint256"
        },
        {
          "internalType": "bool",
          "name": "started",
          "type": "bool"
        },
        {
          "internalType": "bool",
          "name": "expired",
          "type": "bool"
        },
        {
          "internalType": "bool",
          "name": "unlocked",
          "type": "bool"
        },
        {
          "internalType": "uint256",
          "name": "unlock_time",
          "type": "uint256"
        },
        {
          "internalType": "uint256",
          "name": "swapped",
          "type": "uint256"
        },
        {
          "internalType": "uint128[]",
          "name": "exchanged_tokens",
          "type": "uint128[]"
        }
      ],
      "stateMutability": "view",
      "type": "function"
    },
    {
      "inputs": [
        {
          "internalType": "bytes32[]",
          "name": "ito_ids",
          "type": "bytes32[]"
        }
      ],
      "name": "claim",
      "outputs": [],
      "stateMutability": "nonpayable",
      "type": "function"
    },
    {
      "inputs": [
        {
          "internalType": "bytes32",
          "name": "id",
          "type": "bytes32"
        }
      ],
      "name": "destruct",
      "outputs": [],
      "stateMutability": "nonpayable",
      "type": "function"
    },
    {
      "inputs": [
        {
          "internalType": "bytes32",
          "name": "_hash",
          "type": "bytes32"
        },
        {
          "internalType": "uint256",
          "name": "_start",
          "type": "uint256"
        },
        {
          "internalType": "uint256",
          "name": "_end",
          "type": "uint256"
        },
        {
          "internalType": "string",
          "name": "message",
          "type": "string"
        },
        {
          "internalType": "address[]",
          "name": "_exchange_addrs",
          "type": "address[]"
        },
        {
          "internalType": "uint128[]",
          "name": "_ratios",
          "type": "uint128[]"
        },
        {
          "internalType": "uint256",
          "name": "_unlock_time",
          "type": "uint256"
        },
        {
          "internalType": "address",
          "name": "_token_addr",
          "type": "address"
        },
        {
          "internalType": "uint256",
          "name": "_total_tokens",
          "type": "uint256"
        },
        {
          "internalType": "uint256",
          "name": "_limit",
          "type": "uint256"
        },
        {
          "internalType": "address",
          "name": "_qualification",
          "type": "address"
        }
      ],
      "name": "fill_pool",
      "outputs": [],
      "stateMutability": "payable",
      "type": "function"
    },
    {
      "inputs": [
        {
          "internalType": "bytes32",
          "name": "id",
          "type": "bytes32"
        },
        {
          "internalType": "uint256",
          "name": "_unlock_time",
          "type": "uint256"
        }
      ],
      "name": "setUnlockTime",
      "outputs": [],
      "stateMutability": "nonpayable",
      "type": "function"
    },
    {
      "inputs": [
        {
          "internalType": "bytes32",
          "name": "_id",
          "type": "bytes32"
        },
        {
          "internalType": "bytes32",
          "name": "verification",
          "type": "bytes32"
        },
        {
          "internalType": "bytes32",
          "name": "validation",
          "type": "bytes32"
        },
        {
          "internalType": "uint256",
          "name": "exchange_addr_i",
          "type": "uint256"
        },
        {
          "internalType": "uint128",
          "name": "_input_total",
          "type": "uint128"
        }
      ],
      "name": "swap",
      "outputs": [
        {
          "internalType": "uint256",
          "name": "swapped",
          "type": "uint256"
        }
      ],
      "stateMutability": "payable",
      "type": "function"
    },
    {
      "inputs": [
        {
          "internalType": "bytes32",
          "name": "id",
          "type": "bytes32"
        },
        {
          "internalType": "uint256",
          "name": "addr_i",
          "type": "uint256"
        }
      ],
      "name": "withdraw",
      "outputs": [],
      "stateMutability": "nonpayable",
      "type": "function"
    }
  ],
  "transactionHash": "0x87bbe87d0c705770e1ed1c44cca5ee67d169e05fadcea6c251bae6a95a7857b9",
  "args": [],
  "solcInputHash": "790f3fdc85fd3e97f38de9c4e03af28b",
  "bytecode": "0x60806040523480156200001157600080fd5b50604051806101400160405280610108815260200162002fbc6101089139423360405160200162000045939291906200007c565b60408051808303601f1901815291905280516020909101206002556000805463ffffffff16676061188000000000179055620000d0565b60008451815b818110156200009e576020818801810151858301520162000082565b81811115620000ad5782828501525b50919091019283525060601b6001600160601b0319166020820152603401919050565b612edc80620000e06000396000f3fe6080604052600436106100705760003560e01c8063c6d898341161004e578063c6d89834146100f4578063cc0cab4c14610114578063ec0e3d9a14610134578063ef65dc7e1461015457610070565b8063040cf020146100755780636bfdaece14610097578063b391c508146100d4575b600080fd5b34801561008157600080fd5b50610095610090366004612197565b610167565b005b3480156100a357600080fd5b506100b76100b2366004612137565b6103cb565b6040516100cb9897969594939291906123fc565b60405180910390f35b3480156100e057600080fd5b506100956100ef366004612087565b610624565b61010761010236600461214f565b6107e1565b6040516100cb9190612ca9565b34801561012057600080fd5b5061009561012f366004612137565b610fad565b34801561014057600080fd5b5061009561014f366004612197565b6114e2565b6100956101623660046121b8565b611601565b600082815260016020526040902060038101546001600160a01b031633146101aa5760405162461bcd60e51b81526004016101a190612b55565b60405180910390fd5b60008160050183815481106101cf57634e487b7160e01b600052603260045260246000fd5b6000918252602090912060028204015460019091166010026101000a90046001600160801b03169050806102155760405162461bcd60e51b81526004016101a190612835565b60008054600284015461024591600160201b90046001600160e01b031690600160c01b900463ffffffff16612d76565b60018401546001600160e01b039190911691506001600160801b0316428211158061026e575080155b61028a5760405162461bcd60e51b81526004016101a190612798565b60008460040186815481106102af57634e487b7160e01b600052603260045260246000fd5b60009182526020822001546005870180546001600160a01b03909216935090889081106102ec57634e487b7160e01b600052603260045260246000fd5b90600052602060002090600291828204019190066010026101000a8154816001600160801b0302191690836001600160801b0316021790555060006001600160a01b0316816001600160a01b031614610358576103536001600160a01b0382163386611b66565b610387565b604051339085156108fc029086906000818181858888f19350505050158015610385573d6000803e3d6000fd5b505b7fab5315d16ef405a1f4e8c34017af486f59f27097e003d2a1981ae682c2f367318782866040516103ba939291906124e3565b60405180910390a150505050505050565b6000818152600160208181526040808420815160808101835260028201546001600160a01b0381168252600160a01b810463ffffffff908116958301869052600160c01b8204811694830194909452600160e01b9004909216606080840191909152938101548554949594859485948594859485948b9492939260048501926001600160801b03169161046f91600160201b9091046001600160e01b031690612d76565b60005460408501516001600160e01b0392831642119261049d92600160201b9004169063ffffffff16612d76565b60005460608601516001600160e01b039283164211926104cb92600160201b9004169063ffffffff16612d76565b60005460608701516001600160e01b039283164211926104f992600160201b9004169063ffffffff16612d76565b336000908152600789016020908152604091829020548854835181840281018401909452808452909260058c019290918a9183018282801561056457602002820191906000526020600020905b81546001600160a01b03168152600190910190602001808311610546575b50505050509750866001600160801b03169650826001600160e01b031692508080548060200260200160405190810160405280929190818152602001828054801561060057602002820191906000526020600020906000905b82829054906101000a90046001600160801b03166001600160801b031681526020019060100190602082600f010492830192600103820291508084116105bd5790505b50505050509050995099509950995099509950995099505050919395975091939597565b60005b81518110156107dd5760006001600084848151811061065657634e487b7160e01b600052603260045260246000fd5b6020908102919091018101518252818101929092526040908101600020815160808101835260028201546001600160a01b038116825263ffffffff600160a01b8204811695830195909552600160c01b8104851693820193909352600160e01b90920490921660608201819052919250906106d25750506107cb565b42600060049054906101000a90046001600160e01b0316826060015163ffffffff166106fe9190612d76565b6001600160e01b031611156107145750506107cb565b33600090815260078301602052604090205480610733575050506107cb565b336000818152600785016020526040812055825161075d916001600160a01b039091169083611b66565b7f0b8bdb11ddec1f8dd879bd98afac7c33c30ce590fcbc26ed559df98f9a38111985858151811061079e57634e487b7160e01b600052603260045260246000fd5b602002602001015133428486600001516040516107bf95949392919061260f565b60405180910390a15050505b806107d581612e3b565b915050610627565b5050565b60008581526001602081815260408084208151808301835281546001600160a01b038082168352600160a01b9182900464ffffffffff168387015284518086018652968401546001600160801b038082168952600160801b909104168787015284516080810186526002850154808316825292830463ffffffff908116978201889052600160c01b8404811696820196909652600160e01b9092049094166060820152815187548997949693959293919092169163793803729133916108b891600160201b9091046001600160e01b031690612d76565b6001600160e01b03166040518363ffffffff1660e01b81526004016108de9291906123e3565b602060405180830381600087803b1580156108f857600080fd5b505af115801561090c573d6000803e3d6000fd5b505050506040513d601f19601f820116820180604052508101906109309190612117565b15156001146109515760405162461bcd60e51b81526004016101a190612bc2565b42600060049054906101000a90046001600160e01b0316826020015163ffffffff1661097d9190612d76565b6001600160e01b0316106109a35760405162461bcd60e51b81526004016101a190612a9b565b42600060049054906101000a90046001600160e01b0316826040015163ffffffff166109cf9190612d76565b6001600160e01b0316116109f55760405162461bcd60e51b81526004016101a190612a79565b826020015164ffffffffff1633604051602001610a139291906123a4565b604051602081830303815290604052805190602001208a14610a475760405162461bcd60e51b81526004016101a1906128b3565b33604051602001610a589190612339565b604051602081830303815290604052805190602001208914610a8c5760405162461bcd60e51b81526004016101a190612c33565b81516001600160801b0316610ab35760405162461bcd60e51b81526004016101a190612963565b6000846004018981548110610ad857634e487b7160e01b600052603260045260246000fd5b60009182526020822001546001600160a01b0316915060068601610afd8b6002612dd9565b81548110610b1b57634e487b7160e01b600052603260045260246000fd5b90600052602060002090600291828204019190066010029054906101000a90046001600160801b03166001600160801b031690506000866006018b6002610b629190612dd9565b610b6d906001612da1565b81548110610b8b57634e487b7160e01b600052603260045260246000fd5b6000918252602090912060028204015460019091166010026101000a90046001600160801b031690506001600160a01b038316610bea57876001600160801b03163414610bea5760405162461bcd60e51b81526004016101a190612b98565b6000610c10610c0b610c058b6001600160801b031685611bc1565b85611bd4565b611be0565b90506000816001600160801b031611610c3b5760405162461bcd60e51b81526004016101a19061264e565b85602001516001600160801b0316816001600160801b03161115610c8557506020850151610c7e610c0b610c786001600160801b03841686611bc1565b84611bd4565b9850610d10565b85600001516001600160801b0316816001600160801b03161115610d1057508451610cbf610c0b610c786001600160801b03841686611bc1565b98506001600160a01b038416610d1057336108fc610ce66001600160801b038c1634612df8565b6040518115909202916000818181858888f19350505050158015610d0e573d6000803e3d6000fd5b505b85602001516001600160801b0316816001600160801b03161115610d3357600080fd5b610d9d610c0b896005018e81548110610d5c57634e487b7160e01b600052603260045260246000fd5b90600052602060002090600291828204019190066010029054906101000a90046001600160801b03166001600160801b03168b6001600160801b0316611c0d565b886005018d81548110610dc057634e487b7160e01b600052603260045260246000fd5b90600052602060002090600291828204019190066010026101000a8154816001600160801b0302191690836001600160801b03160217905550876007016000336001600160a01b03166001600160a01b0316815260200190815260200160002054600014610e405760405162461bcd60e51b81526004016101a19061276f565b610e63610c0b87600001516001600160801b0316836001600160801b0316611c19565b6001890180546fffffffffffffffffffffffffffffffff19166001600160801b0392831617905533600090815260078a016020526040902090821690556001600160a01b03841615610ecd57610ecd6001600160a01b03851633306001600160801b038d16611c25565b60008f905060008c90507f21a08168838a558cd18a6d9382d7280f44f3dd05f5e96805c46454de0ace5d6b8233888a600001518f8887604051610f16979695949392919061249c565b60405180910390a15050606085015163ffffffff16610f92578451610f4e906001600160a01b0316336001600160801b038416611b66565b7f0b8bdb11ddec1f8dd879bd98afac7c33c30ce590fcbc26ed559df98f9a3811198f3342848960000151604051610f899594939291906125da565b60405180910390a15b6001600160801b03169e9d5050505050505050505050505050565b600081815260016020908152604091829020825160808101845260028201546001600160a01b03808216835263ffffffff600160a01b8304811695840195909552600160c01b8204851695830195909552600160e01b9004909216606083015260038101549092339116146110345760405162461bcd60e51b81526004016101a190612690565b60008054600284015461106491600160201b90046001600160e01b031690600160c01b900463ffffffff16612d76565b60018401546001600160e01b039190911691506001600160801b0316428211158061108d575080155b6110a95760405162461bcd60e51b81526004016101a190612798565b80156110c55782516110c5906001600160a01b03163383611b66565b60005b60048501548110156112ac5760008560050182815481106110f957634e487b7160e01b600052603260045260246000fd5b6000918252602090912060028204015460019091166010026101000a90046001600160801b0316111561129a5760006001600160a01b031685600401828154811061115457634e487b7160e01b600052603260045260246000fd5b6000918252602090912001546001600160a01b03161461120b576112063386600501838154811061119557634e487b7160e01b600052603260045260246000fd5b90600052602060002090600291828204019190066010029054906101000a90046001600160801b03166001600160801b03168760040184815481106111ea57634e487b7160e01b600052603260045260246000fd5b6000918252602090912001546001600160a01b03169190611b66565b61129a565b336001600160a01b03166108fc86600501838154811061123b57634e487b7160e01b600052603260045260246000fd5b90600052602060002090600291828204019190066010029054906101000a90046001600160801b03166001600160801b03169081150290604051600060405180830381858888f19350505050158015611298573d6000803e3d6000fd5b505b806112a481612e3b565b9150506110c8565b5082516040517f01a1fd9d8a4231d7bd8926ce16b753ba03e0310e0a776f13eba8e0c3cba7ea89916112e791889190859060058a0190612502565b60405180910390a16040805180820182526000808252602091820181905286546001600160c81b031916875582518084019093528083529101819052600185018190555b60048501548110156114da57600085600401828154811061135c57634e487b7160e01b600052603260045260246000fd5b9060005260206000200160006101000a8154816001600160a01b0302191690836001600160a01b0316021790555060008560050182815481106113af57634e487b7160e01b600052603260045260246000fd5b90600052602060002090600291828204019190066010026101000a8154816001600160801b0302191690836001600160801b031602179055506000856006018260026113fb9190612dd9565b8154811061141957634e487b7160e01b600052603260045260246000fd5b90600052602060002090600291828204019190066010026101000a8154816001600160801b0302191690836001600160801b031602179055506000856006018260026114659190612dd9565b611470906001612da1565b8154811061148e57634e487b7160e01b600052603260045260246000fd5b90600052602060002090600291828204019190066010026101000a8154816001600160801b0302191690836001600160801b0316021790555080806114d290612e3b565b91505061132b565b505050505050565b6000828152600160205260409020600281015463ffffffff600160e01b90910481169083106115235760405162461bcd60e51b81526004016101a190612a21565b60038201546001600160a01b0316331461154f5760405162461bcd60e51b81526004016101a190612a4e565b60005461157290600160201b90046001600160e01b031663ffffffff8316612d76565b6001600160e01b031642106115995760405162461bcd60e51b81526004016101a190612989565b63ffffffff81166115bc5760405162461bcd60e51b81526004016101a190612921565b826115d95760405162461bcd60e51b81526004016101a1906127c1565b50600201805463ffffffff909216600160e01b026001600160e01b0390921691909117905550565b6000805463ffffffff16908061161683612e56565b91906101000a81548163ffffffff021916908363ffffffff16021790555050888a106116545760405162461bcd60e51b81526004016101a1906127ea565b84891080611660575084155b61167c5760405162461bcd60e51b81526004016101a190612c5e565b8282111561169c5760405162461bcd60e51b81526004016101a190612af8565b600160801b83106116bf5760405162461bcd60e51b81526004016101a19061271a565b60008751116116e05760405162461bcd60e51b81526004016101a1906126d3565b86516116ed906002612dd9565b86511461170c5760405162461bcd60e51b81526004016101a1906129ab565b6000805460025460405161172f923392429263ffffffff90921691602001612351565b60405160208183030381529060405280519060200120905060006001600083815260200190815260200160002090506040518060400160405280846001600160a01b0316815260200160d88f60001c901c64ffffffffff168152508160000160008201518160000160006101000a8154816001600160a01b0302191690836001600160a01b0316021790555060208201518160000160146101000a81548164ffffffffff021916908364ffffffffff1602179055509050506040518060400160405280866001600160801b03168152602001856001600160801b03168152508160010160008201518160000160006101000a8154816001600160801b0302191690836001600160801b0316021790555060208201518160000160106101000a8154816001600160801b0302191690836001600160801b031602179055509050506040518060800160405280876001600160a01b031681526020018d63ffffffff1681526020018c63ffffffff1681526020018863ffffffff168152508160020160008201518160000160006101000a8154816001600160a01b0302191690836001600160a01b0316021790555060208201518160000160146101000a81548163ffffffff021916908363ffffffff16021790555060408201518160000160186101000a81548163ffffffff021916908363ffffffff160217905550606082015181600001601c6101000a81548163ffffffff021916908363ffffffff160217905550905050338160030160006101000a8154816001600160a01b0302191690836001600160a01b0316021790555088816004019080519060200190611995929190611df1565b5060005b8951811015611ae45760006001600160a01b03168a82815181106119cd57634e487b7160e01b600052603260045260246000fd5b60200260200101516001600160a01b031614611a9a5760008a8281518110611a0557634e487b7160e01b600052603260045260246000fd5b60200260200101516001600160a01b03166318160ddd6040518163ffffffff1660e01b815260040160206040518083038186803b158015611a4557600080fd5b505afa158015611a59573d6000803e3d6000fd5b505050506040513d601f19601f82011682018060405250810190611a7d919061229f565b11611a9a5760405162461bcd60e51b81526004016101a1906129f6565b600582018054600180820183556000928352602090922060028204018054929091166010026101000a6001600160801b030219909116905580611adc81612e3b565b915050611999565b508751611afa90600683019060208b0190611e56565b50611b106001600160a01b038716333088611c25565b7f40673e9f2e1c0c28f680f6316a99716027d2dd19914340eac6ee4315c173077e858333428a8f8e8a8c604051611b4f99989796959493929190612cb2565b60405180910390a150505050505050505050505050565b611bbc8363a9059cbb60e01b8484604051602401611b859291906123e3565b60408051601f198184030181529190526020810180516001600160e01b03166001600160e01b031990931692909217909152611c4c565b505050565b6000611bcd8284612dd9565b9392505050565b6000611bcd8284612db9565b6000600160801b8210611c055760405162461bcd60e51b81526004016101a19061286c565b50805b919050565b6000611bcd8284612da1565b6000611bcd8284612df8565b611c46846323b872dd60e01b858585604051602401611b85939291906123bf565b50505050565b6000611ca1826040518060400160405280602081526020017f5361666545524332303a206c6f772d6c6576656c2063616c6c206661696c6564815250856001600160a01b0316611cdb9092919063ffffffff16565b805190915015611bbc5780806020019051810190611cbf9190612117565b611bbc5760405162461bcd60e51b81526004016101a190612be9565b6060611cea8484600085611cf2565b949350505050565b606082471015611d145760405162461bcd60e51b81526004016101a1906128db565b611d1d85611db2565b611d395760405162461bcd60e51b81526004016101a190612ac1565b600080866001600160a01b03168587604051611d559190612388565b60006040518083038185875af1925050503d8060008114611d92576040519150601f19603f3d011682016040523d82523d6000602084013e611d97565b606091505b5091509150611da7828286611db8565b979650505050505050565b3b151590565b60608315611dc7575081611bcd565b825115611dd75782518084602001fd5b8160405162461bcd60e51b81526004016101a1919061263b565b828054828255906000526020600020908101928215611e46579160200282015b82811115611e4657825182546001600160a01b0319166001600160a01b03909116178255602090920191600190910190611e11565b50611e52929150611f05565b5090565b82805482825590600052602060002090600101600290048101928215611e465791602002820160005b83821115611ec957835183826101000a8154816001600160801b0302191690836001600160801b031602179055509260200192601001602081600f01049283019260010302611e7f565b8015611efc5782816101000a8154906001600160801b030219169055601001602081600f01049283019260010302611ec9565b5050611e529291505b5b80821115611e525760008155600101611f06565b80356001600160a01b0381168114611c0857600080fd5b600082601f830112611f41578081fd5b81356020611f56611f5183612d46565b612d1c565b8281528181019085830183850287018401881015611f72578586fd5b855b85811015611f9757611f8582611f1a565b84529284019290840190600101611f74565b5090979650505050505050565b600082601f830112611fb4578081fd5b81356020611fc4611f5183612d46565b8281528181019085830183850287018401881015611fe0578586fd5b855b85811015611f9757611ff382612070565b84529284019290840190600101611fe2565b600082601f830112612015578081fd5b813567ffffffffffffffff81111561202f5761202f612e90565b612042601f8201601f1916602001612d1c565b818152846020838601011115612056578283fd5b816020850160208301379081016020019190915292915050565b80356001600160801b0381168114611c0857600080fd5b60006020808385031215612099578182fd5b823567ffffffffffffffff8111156120af578283fd5b8301601f810185136120bf578283fd5b80356120cd611f5182612d46565b81815283810190838501858402850186018910156120e9578687fd5b8694505b8385101561210b5780358352600194909401939185019185016120ed565b50979650505050505050565b600060208284031215612128578081fd5b81518015158114611bcd578182fd5b600060208284031215612148578081fd5b5035919050565b600080600080600060a08688031215612166578081fd5b8535945060208601359350604086013592506060860135915061218b60808701612070565b90509295509295909350565b600080604083850312156121a9578182fd5b50508035926020909101359150565b60008060008060008060008060008060006101608c8e0312156121d9578586fd5b8b359a5060208c0135995060408c0135985067ffffffffffffffff8060608e01351115612204578687fd5b6122148e60608f01358f01612005565b98508060808e01351115612226578687fd5b6122368e60808f01358f01611f31565b97508060a08e01351115612248578687fd5b506122598d60a08e01358e01611fa4565b955060c08c0135945061226e60e08d01611f1a565b93506101008c013592506101208c0135915061228d6101408d01611f1a565b90509295989b509295989b9093969950565b6000602082840312156122b0578081fd5b5051919050565b6000815180845260208085019450808401835b838110156122ef5781516001600160801b0316875295820195908201906001016122ca565b509495945050505050565b15159052565b60008151808452612318816020860160208601612e0f565b601f01601f19169290920160200192915050565b6001600160801b03169052565b60609190911b6001600160601b031916815260140190565b60609490941b6001600160601b0319168452601484019290925260e01b6001600160e01b0319166034830152603882015260580190565b6000825161239a818460208701612e0f565b9190910192915050565b91825260601b6001600160601b031916602082015260340190565b6001600160a01b039384168152919092166020820152604081019190915260600190565b6001600160a01b03929092168252602082015260400190565b6101008082528951908201819052600090610120830190602090818d01845b828110156124405781516001600160a01b03168552938301939083019060010161241b565b50505083018a9052612455604084018a6122fa565b61246260608401896122fa565b61246f60808401886122fa565b8560a08401528460c084015282810360e084015261248d81856122b7565b9b9a5050505050505050505050565b9687526001600160a01b03958616602088015293851660408701529190931660608501526001600160801b039283166080850152821660a08401521660c082015260e00190565b9283526001600160a01b03919091166020830152604082015260600190565b60006080808301878452602060018060a01b03881681860152604087818701528360608701528287546125358186612ca9565b915061254089612d6a565b9450865b60018281830110612555575061258a565b865461256a856001600160801b03831661232c565b612578878601828b1c61232c565b50959095019491830191600201612544565b945494818110156125b0576125a8836001600160801b03881661232c565b918401916001015b818110156125c9576125c48387891c61232c565b918401915b50909b9a5050505050505050505050565b9485526001600160a01b03938416602086015260408501929092526001600160801b0316606084015216608082015260a00190565b9485526001600160a01b0393841660208601526040850192909252606084015216608082015260a00190565b600060208252611bcd6020830184612300565b60208082526022908201527f426574746572206e6f7420647261772077617465722077697468206120736965604082015261766560f01b606082015260800190565b60208082526023908201527f4f6e6c792074686520706f6f6c2063726561746f722063616e2064657374727560408201526231ba1760e91b606082015260800190565b60208082526027908201527f45786368616e676520746f6b656e20616464726573736573206e65656420746f604082015266081899481cd95d60ca1b606082015260800190565b60208082526035908201527f4e6f206d6f7265207468616e20325e31323820746f6b656e7328696e636c7569604082015274191b99c8191958da5b585b1cca48185b1b1bddd959605a1b606082015260800190565b6020808252600f908201526e105b1c9958591e481cddd85c1c1959608a1b604082015260600190565b6020808252600f908201526e139bdd08195e1c1a5c9959081e595d608a1b604082015260600190565b6020808252600f908201526e043616e6e6f742073657420746f203608c1b604082015260600190565b6020808252602b908201527f53746172742074696d652073686f756c64206265206561726c6965722074686160408201526a371032b732103a34b6b29760a91b606082015260800190565b60208082526017908201527f4e6f6e65206f66207468697320746f6b656e206c656674000000000000000000604082015260600190565b60208082526027908201527f53616665436173743a2076616c756520646f65736e27742066697420696e20316040820152663238206269747360c81b606082015260800190565b6020808252600e908201526d15dc9bdb99c814185cdcdddbdc9960921b604082015260600190565b60208082526026908201527f416464726573733a20696e73756666696369656e742062616c616e636520666f6040820152651c8818d85b1b60d21b606082015260800190565b60208082526022908201527f4e6f7420656c696769626c65207768656e20756e6c6f636b5f74696d65206973604082015261020360f41b606082015260800190565b6020808252600c908201526b4f7574206f662053746f636b60a01b604082015260600190565b602080825260089082015267546f6f204c61746560c01b604082015260600190565b6020808252602b908201527f53697a65206f6620726174696f73203d2032202a2073697a65206f662065786360408201526a68616e67655f616464727360a81b606082015260800190565b60208082526011908201527004e6f7420612076616c696420455243323607c1b604082015260600190565b602080825260139082015272696e76616c696420756e6c6f636b2074696d6560681b604082015260600190565b602080825260119082015270506f6f6c2043726561746f72204f6e6c7960781b604082015260600190565b60208082526008908201526722bc3834b932b21760c11b604082015260600190565b6020808252600c908201526b2737ba1039ba30b93a32b21760a11b604082015260600190565b6020808252601d908201527f416464726573733a2063616c6c20746f206e6f6e2d636f6e7472616374000000604082015260600190565b60208082526038908201527f4c696d6974206e6565647320746f206265206c657373207468616e206f72206560408201527f7175616c20746f2074686520746f74616c20737570706c790000000000000000606082015260800190565b60208082526023908201527f4f6e6c792074686520706f6f6c2063726561746f722063616e2077697468647260408201526230bb9760e91b606082015260800190565b60208082526010908201526f27379032b737bab3b41032ba3432b91760811b604082015260600190565b6020808252600d908201526c139bdd08145d585b1a599a5959609a1b604082015260600190565b6020808252602a908201527f5361666545524332303a204552433230206f7065726174696f6e20646964206e6040820152691bdd081cdd58d8d9595960b21b606082015260800190565b60208082526011908201527015985b1a59185d1a5bdb8811985a5b1959607a1b604082015260600190565b6020808252602b908201527f456e642074696d652073686f756c64206265206561726c696572207468616e2060408201526a756e6c6f636b2074696d6560a81b606082015260800190565b90815260200190565b60006101208b83528a602084015260018060a01b03808b16604085015289606085015280891660808501528160a0850152612cef82850189612300565b915083820360c0850152612d0382886122b7565b951660e084015250506101000152979650505050505050565b60405181810167ffffffffffffffff81118282101715612d3e57612d3e612e90565b604052919050565b600067ffffffffffffffff821115612d6057612d60612e90565b5060209081020190565b60009081526020902090565b60006001600160e01b03828116848216808303821115612d9857612d98612e7a565b01949350505050565b60008219821115612db457612db4612e7a565b500190565b600082612dd457634e487b7160e01b81526012600452602481fd5b500490565b6000816000190483118215151615612df357612df3612e7a565b500290565b600082821015612e0a57612e0a612e7a565b500390565b60005b83811015612e2a578181015183820152602001612e12565b83811115611c465750506000910152565b6000600019821415612e4f57612e4f612e7a565b5060010190565b600063ffffffff80831681811415612e7057612e70612e7a565b6001019392505050565b634e487b7160e01b600052601160045260246000fd5b634e487b7160e01b600052604160045260246000fdfea26469706673582212203b573bdd62779a98341244d66e07a64223bef05390769d76625b2de5a4c88b8a64736f6c634300080000335072696e6365205068696c69702c20517565656e20456c697a616265746820494927732068757362616e642c20686173206469656420616765642039392c20202020204275636b696e6768616d2050616c6163652068617320616e6e6f756e6365642e20412073746174656d656e7420697373756564206279207468652070616c616365206a757374206166746572206d69646461792073706f6b65206f66207468652020202020517565656e2773206465657020736f72726f7720666f6c6c6f77696e67206869732064656174682061742057696e64736f7220436173746c65206f6e20467269646179206d6f726e696e672e205468652044756b65206f66204564696e627572",
  "devdoc": {
    "kind": "dev",
    "methods": {
      "fill_pool(bytes32,uint256,uint256,string,address[],uint128[],uint256,address,uint256,uint256,address)": {
        "details": " fill_pool() creates a swap pool with specific parameters from input _hash                sha3-256(password) _start               start time delta, real start time = base_time + _start _end                 end time delta, real end time = base_time + _end message              swap pool creation message, only stored in FillSuccess event _exchange_addrs      swap token list (0x0 for ETH, only supports ETH and ERC20 now) _ratios              swap pair ratio list _unlock_time         unlock time delta real unlock time = base_time + _unlock_time _token_addr          swap target token address _total_tokens        target token total swap amount _limit               target token single swap limit _qualification       the qualification contract address based on IQLF to determine qualification This function takes the above parameters and creates the pool. _total_tokens of the target token will be successfully transferred to this contract securely on a successful run of this function.*"
      },
      "swap(bytes32,bytes32,bytes32,uint256,uint128)": {
        "details": "swap() allows users to swap tokens in a swap pool id                   swap pool id verification         sha3-256(sha3-256(password)[:40]+swapper_address) validation           sha3-256(swapper_address) exchange_addr_i     the index of the exchange address of the list _input_total          the input amount of the specific token This function is called by the swapper who approves the specific ERC20 or directly transfer the ETH first and wants to swap the desired amount of the target token. The swapped amount is calculated based on the pool ratio. After swap successfully, the same account can not swap the same pool again.*"
      }
    },
    "version": 1
  },
  "userdoc": {
    "kind": "user",
    "methods": {
      "check_availability(bytes32)": {
        "notice": "check_availability() returns a bunch of pool info given a pool id id                    swap pool id this function returns 1. exchange_addrs that can be used to determine the index                       2. remaining target tokens                       3. if started                       4. if ended                       5. swapped amount of the query address                       5. exchanged amount of each token*"
      },
      "destruct(bytes32)": {
        "notice": "destruct() destructs the given pool given the pool id id                    swap pool id this function can only be called by the pool creator. after validation, it transfers all the remaining token  (if any) and all the swapped tokens to the pool creator. it will then destruct the pool by reseting almost  all the variables to zero to get the gas refund. note that this function may not work if a pool needs to transfer over ~200 tokens back to the address due to  the block gas limit. we have another function withdraw() to help the pool creator to withdraw a single token *"
      },
      "withdraw(bytes32,uint256)": {
        "notice": "withdraw() transfers out a single token after a pool is expired or empty  id                    swap pool id addr_i                withdraw token index this function can only be called by the pool creator. after validation, it transfers the addr_i th token  out to the pool creator address.*"
      }
    },
    "version": 1
  },
  "storageLayout": {
    "storage": [
      {
        "astId": 1945,
        "contract": "contracts/ito.sol:HappyTokenPool",
        "label": "nonce",
        "offset": 0,
        "slot": "0",
        "type": "t_uint32"
      },
      {
        "astId": 1947,
        "contract": "contracts/ito.sol:HappyTokenPool",
        "label": "base_time",
        "offset": 4,
        "slot": "0",
        "type": "t_uint224"
      },
      {
        "astId": 1952,
        "contract": "contracts/ito.sol:HappyTokenPool",
        "label": "pool_by_id",
        "offset": 0,
        "slot": "1",
        "type": "t_mapping(t_bytes32,t_struct(Pool)1871_storage)"
      },
      {
        "astId": 1957,
        "contract": "contracts/ito.sol:HappyTokenPool",
        "label": "seed",
        "offset": 0,
        "slot": "2",
        "type": "t_bytes32"
      }
    ],
    "types": {
      "t_address": {
        "encoding": "inplace",
        "label": "address",
        "numberOfBytes": "20"
      },
      "t_array(t_address)dyn_storage": {
        "base": "t_address",
        "encoding": "dynamic_array",
        "label": "address[]",
        "numberOfBytes": "32"
      },
      "t_array(t_uint128)dyn_storage": {
        "base": "t_uint128",
        "encoding": "dynamic_array",
        "label": "uint128[]",
        "numberOfBytes": "32"
      },
      "t_bytes32": {
        "encoding": "inplace",
        "label": "bytes32",
        "numberOfBytes": "32"
      },
      "t_mapping(t_address,t_uint256)": {
        "encoding": "mapping",
        "key": "t_address",
        "label": "mapping(address => uint256)",
        "numberOfBytes": "32",
        "value": "t_uint256"
      },
      "t_mapping(t_bytes32,t_struct(Pool)1871_storage)": {
        "encoding": "mapping",
        "key": "t_bytes32",
        "label": "mapping(bytes32 => struct HappyTokenPool.Pool)",
        "numberOfBytes": "32",
        "value": "t_struct(Pool)1871_storage"
      },
      "t_struct(Packed1)1832_storage": {
        "encoding": "inplace",
        "label": "struct HappyTokenPool.Packed1",
        "members": [
          {
            "astId": 1829,
            "contract": "contracts/ito.sol:HappyTokenPool",
            "label": "qualification_addr",
            "offset": 0,
            "slot": "0",
            "type": "t_address"
          },
          {
            "astId": 1831,
            "contract": "contracts/ito.sol:HappyTokenPool",
            "label": "password",
            "offset": 20,
            "slot": "0",
            "type": "t_uint40"
          }
        ],
        "numberOfBytes": "32"
      },
      "t_struct(Packed2)1837_storage": {
        "encoding": "inplace",
        "label": "struct HappyTokenPool.Packed2",
        "members": [
          {
            "astId": 1834,
            "contract": "contracts/ito.sol:HappyTokenPool",
            "label": "total_tokens",
            "offset": 0,
            "slot": "0",
            "type": "t_uint128"
          },
          {
            "astId": 1836,
            "contract": "contracts/ito.sol:HappyTokenPool",
            "label": "limit",
            "offset": 16,
            "slot": "0",
            "type": "t_uint128"
          }
        ],
        "numberOfBytes": "32"
      },
      "t_struct(Packed3)1846_storage": {
        "encoding": "inplace",
        "label": "struct HappyTokenPool.Packed3",
        "members": [
          {
            "astId": 1839,
            "contract": "contracts/ito.sol:HappyTokenPool",
            "label": "token_address",
            "offset": 0,
            "slot": "0",
            "type": "t_address"
          },
          {
            "astId": 1841,
            "contract": "contracts/ito.sol:HappyTokenPool",
            "label": "start_time",
            "offset": 20,
            "slot": "0",
            "type": "t_uint32"
          },
          {
            "astId": 1843,
            "contract": "contracts/ito.sol:HappyTokenPool",
            "label": "end_time",
            "offset": 24,
            "slot": "0",
            "type": "t_uint32"
          },
          {
            "astId": 1845,
            "contract": "contracts/ito.sol:HappyTokenPool",
            "label": "unlock_time",
            "offset": 28,
            "slot": "0",
            "type": "t_uint32"
          }
        ],
        "numberOfBytes": "32"
      },
      "t_struct(Pool)1871_storage": {
        "encoding": "inplace",
        "label": "struct HappyTokenPool.Pool",
        "members": [
          {
            "astId": 1849,
            "contract": "contracts/ito.sol:HappyTokenPool",
            "label": "packed1",
            "offset": 0,
            "slot": "0",
            "type": "t_struct(Packed1)1832_storage"
          },
          {
            "astId": 1852,
            "contract": "contracts/ito.sol:HappyTokenPool",
            "label": "packed2",
            "offset": 0,
            "slot": "1",
            "type": "t_struct(Packed2)1837_storage"
          },
          {
            "astId": 1855,
            "contract": "contracts/ito.sol:HappyTokenPool",
            "label": "packed3",
            "offset": 0,
            "slot": "2",
            "type": "t_struct(Packed3)1846_storage"
          },
          {
            "astId": 1857,
            "contract": "contracts/ito.sol:HappyTokenPool",
            "label": "creator",
            "offset": 0,
            "slot": "3",
            "type": "t_address"
          },
          {
            "astId": 1860,
            "contract": "contracts/ito.sol:HappyTokenPool",
            "label": "exchange_addrs",
            "offset": 0,
            "slot": "4",
            "type": "t_array(t_address)dyn_storage"
          },
          {
            "astId": 1863,
            "contract": "contracts/ito.sol:HappyTokenPool",
            "label": "exchanged_tokens",
            "offset": 0,
            "slot": "5",
            "type": "t_array(t_uint128)dyn_storage"
          },
          {
            "astId": 1866,
            "contract": "contracts/ito.sol:HappyTokenPool",
            "label": "ratios",
            "offset": 0,
            "slot": "6",
            "type": "t_array(t_uint128)dyn_storage"
          },
          {
            "astId": 1870,
            "contract": "contracts/ito.sol:HappyTokenPool",
            "label": "swapped_map",
            "offset": 0,
            "slot": "7",
            "type": "t_mapping(t_address,t_uint256)"
          }
        ],
        "numberOfBytes": "256"
      },
      "t_uint128": {
        "encoding": "inplace",
        "label": "uint128",
        "numberOfBytes": "16"
      },
      "t_uint224": {
        "encoding": "inplace",
        "label": "uint224",
        "numberOfBytes": "28"
      },
      "t_uint256": {
        "encoding": "inplace",
        "label": "uint256",
        "numberOfBytes": "32"
      },
      "t_uint32": {
        "encoding": "inplace",
        "label": "uint32",
        "numberOfBytes": "4"
      },
      "t_uint40": {
        "encoding": "inplace",
        "label": "uint40",
        "numberOfBytes": "5"
      }
    }
  }
}